:1000000000308A008D28000083161F109F101F11DA
:100010009F111F1383121F179F1783169F1383129D
:100020001F148A110A12A428280DF700F70DF70DE6
:10003000F830F7051F08C73977049F001030F70024
:10004000F70B202800001F151F1924281E08F80090
:1000500008002B08F8012A02031831282A08F700A3
:100060003D28F7010830AC00AA0DF70D2B087702E8
:100070000318F700F80DAC0B34280800780828089E
:10008000AA006430AB0029207708A8007808303037
:10009000031D5128A91C5928A9195928291A2030AB
:1000A0005428A91129122914F80778080C1E56287B
:1000B00099002808AA000A30AB0029207708A80078
:1000C00078083030031D6A28A9196F28291C6F2869
:1000D000291A2030F80778080C1E6C289900303057
:1000E000A80728080C1E72289900080028308400F0
:1000F0008313000803198A280130F800F701F70B71
:100100007F28F80B7E284A30F700F70B85288828CF
:10011000800B7C288A110A12C62803081F39830025
:10012000193083169900A6309800903083129800F9
:1001300083161F149F141F159F1107309C008313F3
:100140008312A001A1010428A80114207808A600A8
:100150000130A80014207808A7002608A8001B304A
:10016000A9003E202C300C1EB32899002708A800B7
:100170001B30A9003E200D300C1EBC2899000A300F
:100180000C1EC02899006430A8007628A3286300BC
:02400E00713F00
:00000001FF
;PIC16F877A
;CRC=EAB4  CREATED="15-jun.-22 11:01"
